{
  "transactions": [
    {
      "hash": "0x07a616cefc564f775600b47cf5679f12e005911abd2bfc7591942916c2d335a1",
      "transactionType": "CALL",
      "contractName": null,
      "contractAddress": "0x0ede79b2179d512d48c316ae77478710d13400ee",
      "function": "mintNft(string)",
      "arguments": [
        "ipfs://bafybeig37ioir76s7mg5oobetncojcm3c3hxasyd4rvid4jqhy4gkaheg4/?filename=0-PUG.json"
      ],
      "transaction": {
        "from": "0xf54ea090d66ac6903cae152d7e35ea0ff59b42cc",
        "to": "0x0ede79b2179d512d48c316ae77478710d13400ee",
        "gas": "0x3da7f",
        "value": "0x0",
        "input": "0xda86f4a900000000000000000000000000000000000000000000000000000000000000200000000000000000000000000000000000000000000000000000000000000057697066733a2f2f62616679626569673337696f6972373673376d67356f6f6265746e636f6a636d3363336878617379643472766964346a71687934676b61686567342f3f66696c656e616d653d302d5055472e6a736f6e000000000000000000",
        "nonce": "0x20",
        "chainId": "0xaa36a7"
      },
      "additionalContracts": [],
      "isFixedGasLimit": false
    }
  ],
  "receipts": [
    {
      "status": "0x1",
      "cumulativeGasUsed": "0x391237c",
      "logs": [
        {
          "address": "0x0ede79b2179d512d48c316ae77478710d13400ee",
          "topics": [
            "0xddf252ad1be2c89b69c2b068fc378daa952ba7f163c4a11628f55a4df523b3ef",
            "0x0000000000000000000000000000000000000000000000000000000000000000",
            "0x000000000000000000000000f54ea090d66ac6903cae152d7e35ea0ff59b42cc",
            "0x0000000000000000000000000000000000000000000000000000000000000000"
          ],
          "data": "0x",
          "blockHash": "0xd702d299cd694dd4f44523c869a33ce84dd8458dc0e376a805e3cdb90e3a3eb9",
          "blockNumber": "0xa96db1",
          "blockTimestamp": "0x6a36f068",
          "transactionHash": "0x07a616cefc564f775600b47cf5679f12e005911abd2bfc7591942916c2d335a1",
          "transactionIndex": "0xa1",
          "logIndex": "0x11f",
          "removed": false
        }
      ],
      "logsBloom": "0x00000000000000000000000000000000000000000000000000000000000000000000000000000000080000000000000000000000000000000001000000000000000000000000000000000008000000000000000000000000000000000000000000000000020000000000000000000800000000000000000000000010000000000000000000000000000000000000000000000000000000000000000000001000800000000000000000000000000000000000000000000000000000000000000000000002000000000000000000000000000001000000000000000800000020000000000000000000000000000000000000000000000000000000000000000000",
      "type": "0x2",
      "transactionHash": "0x07a616cefc564f775600b47cf5679f12e005911abd2bfc7591942916c2d335a1",
      "transactionIndex": "0xa1",
      "blockHash": "0xd702d299cd694dd4f44523c869a33ce84dd8458dc0e376a805e3cdb90e3a3eb9",
      "blockNumber": "0xa96db1",
      "gasUsed": "0x2ca35",
      "effectiveGasPrice": "0x3a633028",
      "from": "0xf54ea090d66ac6903cae152d7e35ea0ff59b42cc",
      "to": "0x0ede79b2179d512d48c316ae77478710d13400ee",
      "contractAddress": null
    }
  ],
  "libraries": [],
  "pending": [],
  "returns": {},
  "timestamp": 1781985385778,
  "chain": 11155111,
  "commit": "2517b12"
}